# Interface

Interface 类抽象了与以太坊合约交互所需的 ABI 编码和解码.

有 2 种方式访问 Interface 实例:

1. 通过合约实例的 interface 属性获取:

```js
const interface1 = contract.interface;
```

2. 通过 ethers.Interface 类创建:

```js
const interface2 = new ethers.Interface(ABI);
```

<br><br>

# Interface 常用方法

1. encodeFunctionData: 将函数名称和参数编码为合约可以理解的格式

2. decodeFunctionResult: 将合约返回的数据解码为可读格式

```js
const decodedData  = interface.encodeFunctionData("函数名", ["参数1", ...]);
console.log(`decodedData: ${decodedData}`);

const result = interface.decodeFunctionResult("函数名", "合约返回的 16 进制数据");
console.log(`result: ${result}`);
```

<br><br>

# demo

与测试网 WETH 合约交互:

1. 创建 provider 和 wallet

```js
const provider = new ethers.JsonRpcProvider("https://sepolia.infura.io/v3/your-infura-id");
const wallet = new ethers.Wallet("your-private-key", provider);
```

2. 创建 WETH 合约实例

```js
const WETHABI = ["function balanceOf(address) public view returns(uint)", "function deposit() public payable"];
const WETHAddress = "0x5f207d42F869fd1c71d7f0f81a2A67Fc20FF7323";
const WETHContract = new ethers.Contract(WETHAddress, WETHABI, provider);
```

3.  创建 interface 实例:

```js
const WETHInterface1 = WETHContract.interface;
// 或
const WETHInterface2 = new ethers.Interface(WETHABI);
```

4. 编码 balanceOf 的 calldata, 读取我的 WETH 余额

```js
// 编码 balanceOf 函数的 calldata
const callData1 = WETHInterface1.encodeFunctionData("balanceOf", [wallet.address]);
console.log(`balanceOf 函数的 calldata: ${callData1}`);
// 0x70a082310000000000000000000000008868b57c6da3865752572d17946b92e562795a08

// 只读操作, 可使用 provider.call
const balance1 = await provider.call({ to: WETHAddress, data: callData1 });
console.log(`我的 WETH 余额: ${ethers.formatEther(balance1)} ether`);
```

5. 编码 deposit 的 calldata, 存入 0.0005 ETH

```js
// 编码 deposit 函数的 calldata
const callData2 = WETHInterface1.encodeFunctionData("deposit");
console.log(`deposit 函数的 calldata: ${callData2}`); // 0xd0e30db0

// 可写操作, 可使用 wallet.sendTransaction
const tx = await wallet.sendTransaction({ to: WETHAddress, data: callData2, value: ethers.parseEther("0.0005") });
await tx.wait();
console.log(`交易详情: ${JSON.stringify(tx, null, 4)}`);
// { "_type": "TransactionResponse", "signature": ..., "to": ..., "value": ..., ... }

// 查询余额
const balance2 = await WETHContract.balanceOf(wallet.address);
console.log(`我的 WETH 余额: ${ethers.formatEther(balance2)} ether`);
```

<br><br>
